:1000000001308A008C2900000830F80000008711B8
:10001000A01120088316870000008312AB0D071281
:10002000031C182820162008831687001C2883121A
:10003000201220088316870000008312A0152008D4
:10004000831687008312871D2328F80B06280000DB
:100050008711A01120088316870000008312201644
:10006000200883168700000000008312A0152008D6
:10007000831687008312871D3B28F8010000071AAA
:1000800078148711A01120088316870083120712A5
:100090002012200883168700831200340830AC0039
:1000A0007708AD0020162008831687000000831211
:1000B000A0152008831687008312871D5D28071A64
:1000C0000314071E0310F80D0000A011200883166A
:1000D000870083128711AC0B522820162008831644
:1000E00087000000831207122D0803197C282012B4
:1000F00020088316870083120000A01520088316AD
:1001000087008312871D822800008711A011200814
:10011000831687000000831207122012200883161E
:100120008700831200342C08AD000310AD0C78302A
:10013000AD052D0CF700F70C3F30F70577082D07BC
:10014000AE002C080F392E07F8000034A801201645
:1001500020088316870000008312A015200883164C
:1001600087000000831207122012200883168700E0
:10017000000083128711A011200883168700D03059
:100180008312AB000420AB01042020162008831644
:10019000870000008312A015200883168700000046
:1001A0008312871DD128071220122008831687008A
:1001B000000083128711A011200883168700D13018
:1001C0008312AB000420F7014E207808A900AC0090
:1001D00093207808A80020122008831687000000CA
:1001E0008312A0152008831687008312871DF62826
:1001F0000000FA280000201620088316870000005F
:100200008312A813032900002016200883168700F4
:1002100000008312A01520088316870000008312B7
:10022000071220122008831687000000831287110E
:10023000A011200883168700D0308312AB00042061
:10024000AB0104202808A9002908AA00AB012A084C
:10025000093C031830290A30AA021030AB073329B1
:100260002A08AB07342927292B08F8007808A900A9
:10027000AB0004202016200883168700000083129C
:10028000A01520088316870000008312871D4629C9
:10029000071220122008831687000000831287119E
:1002A000A011200883168700D0308312AB000420F1
:1002B0000730AB0004208030AB000420201220085F
:1002C0008316870000008312A0152008831687007C
:1002D0008312871D692900006D290000201620085F
:1002E00083168700000083128A110A12B029293070
:1002F00084008313000803198B290130F800F701EB
:10030000F70B8029F80B7F294A30F700F70B862975
:100310008929800B7D290034840183131F308305D4
:1003200083161F149F141F159F1107309C00FF3068
:100330008312A0001230A1001E30A2001530A300CD
:100340001E30A4008316850186018701880189017A
:1003500083128501F0308600870188018901A62873
:100360006430A9007721201620088316870000003A
:100370008312A0152008831687000000831207123D
:100380002012200883168700000083128711A01115
:10039000200883168700D0308312AB000420AB0105
:1003A0000420201620088316870000008312A01561
:1003B00020088316870000008312871DDD2907129D
:1003C0002012200883168700000083128711A011D5
:1003D000200883168700D1308312AB00042001303F
:1003E000F7004E2078087F39A800AC0093207808E9
:1003F000A7000130F7004E2078087F39A800AC0034
:1004000093207808A600F7014E2078083F39A8000D
:10041000AC0093207808A5002012200883168700DE
:1004200000008312A0152008831687008312871D01
:10043000172A00001B2A00002016200883168700B8
:10044000000064308312A9007721061F342A861F1A
:10045000342A861A342A083088060230A800FA3076
:10046000A9007721A80B2F2A061B412A2508113C39
:100470000318402A2508153C031C402A8815412AE8
:100480008811861B622A2508123C031D4D2A260866
:100490001D3C03184D2A8815622A2508123C0318B2
:1004A000572A2508143C031C572A8815622A250858
:1004B000153C031D612A26081D3C031C612A881572
:0804C000622A8811B3296300D0
:02400E00711F20
:00000001FF
;PIC16F877A
;CRC=C3B8  CREATED="18-Apr-14 20:44"
